:020000040000FA
:06000000C7EF09F0120039
:0600080004EF10F01200ED
:060018000CEF10F01200D5
:02002A000000D4
:04002C0018EC06F0D6
:10003000040EE126FD0EDBCF14F0FE0EDBCF15F033
:10004000166A010E14C0DBFF020E15C0DBFF030EA3
:1000500016C0DBFF010EDBCFF6FF020EDBCFF7FF92
:10006000030EDBCFF8FF0800F550DF6EA68EA69CCE
:10007000A688D8EC06F0DF6A400EDF5C1DE2DF5098
:10008000E76EFB0EDBCFE9FFFC0E29EC07F0EFCFAC
:1000900014F0D950010FD4EC06F0EFCFF6FFEE2AA2
:1000A000EFCFF7FF000EEE22EFCFF8FFEE2214C0E5
:1000B000F5FF0C00DF2AE0D7A68EA69CA698D8EC08
:1000C00006F0A694040EE15C02E2E16AE552E16EFC
:1000D0001DEF06F0B888B896B06A010EAF6E948C2A
:1000E000948EAC88AC8EAB8EAB9AAB98AC8AAC8C51
:1000F000120049EC07F0DBAE02D0AC8001D0AC902E
:10010000DB50E824DF6EACA2FED7DF50AD6EE552C7
:100110001DEF06F049EC07F0DBAE02D0AC8001D059
:10012000AC90DB50E8240109DF6EACA2FED7DF50B3
:10013000AD6EE5521DEF06F049EC07F0DB50EAEC3E
:1001400006F0F538F00BDF6EFE0EDB50F00BE838F2
:10015000EAEC06F0F550DF12DF50E5521DEF06F035
:1001600025EC07F0FE0EDB50FE0BE76EFE0EE7CF30
:10017000DBFFFC0EDB50FE0BE76EFC0EE7CFDBFF78
:10018000AE0E13EC06F0FE0EDBCFE6FF0CEC06F035
:10019000FC0EDBCFE6FFFE0EDB50E552E724FF0F3F
:1001A00018EC07F0FB0EDBCFE6FFFD0EDB50E5524F
:1001B000E724FF0F30EC07F0DF6AFC0EDB50FE0B8C
:1001C000E842DF5C15E2010EDB6AFB0EDB50F2EC6D
:1001D00006F00CE2FA0EE1EC06F0F90EE1EC06F0A6
:1001E000F80EE1EC06F0010EDB2AEFD7DF2AE5D7A7
:1001F000020EE15C02E2E16AE552E16E1DEF06F0FB
:1002000018EC06F0050EE1261F0E146EFC0EDBCF77
:10021000E7FF1450E75EFC0EE7CFDBFFFE0EDB507E
:10022000FE0B0109E76EFE0EE7CFDBFFAE0E13EC0F
:1002300006F0FE0EDB28E66E0CEC06F0FE0EDB5040
:10024000060F18EC07F0FD0EDB50070F30EC07F03F
:10025000FC0EDBCF14F0156A14BE1568030ED8909F
:1002600014361536E806FBE1AA0E14260E0E1522EA
:10027000030E14C0DBFF040E15C0DBFFDF6A080E9F
:10028000DF5C47E2DF50E76E030EDBCFF6FF040EC4
:10029000DBCFF7FFE750F626000EF7220800020E2C
:1002A000F5CFDBFF010EDB6A030EF2EC06F02FE266
:1002B000020EDB50C00BC00A18E0400A0DE0C00A75
:1002C00006E0400A1BE1BDEC06F0E66A0AD0BDEC90
:1002D00006F0F00EE66E0DD0E66851EC07F00F0E5A
:1002E000E66E51EC07F0E66A07D0E66851EC07F0DD
:1002F000E66851EC07F0E6680DDFE552020EDB50D0
:10030000040D020EF3CFDBFF010EDB2ACDD7DF2A6F
:10031000B6D7050EE15C02E2E16AE552E16E1DEF3F
:1003200006F018EC06F0A0EC06F022E0A0EC06F0D7
:10033000E66EFD0EDBCFE6FFFE0EDBCFE6FF60DFF5
:10034000E552E552E552D950FA0FE96EFF0EDA2078
:10035000EA6EEE2A000EEE22EE22060E146EFE0E5D
:10036000DBCFE7FF1450E726FE0EE7CFDBFFDBD73E
:100370001DEF06F025EC07F0FB0EDBCFE6FFFC0ED1
:10038000DBCFE6FFFD0EDBCFE6FFFE0EDBCFE6FFA9
:10039000E66AC7DF146E050EE15E1450010EDB6ADB
:1003A000DBCF14F0040EE76E1418E8AE02D0E73489
:1003B00002D0E750145C32E20F0EE76EF90EDBCF8D
:1003C000F6FFFA0EDBCFF7FFE750F616F76ACE0E10
:1003D000F626110EF7220800F550E66EFE0EDBCF72
:1003E000E6FF780E146E010EDB50060DF350145C20
:1003F000E66E06DFE552E552E552F9EC06F0040E32
:10040000D89015321432E804FBE1F90E14C0DBFF7A
:10041000FA0E15C0DBFF010EDB2AC2D7020EE15C2B
:1004200002E2E16AE552E16E1DEF06F053DE9490C0
:1004300094928292E80E07EC07F08282E80E07ECB5
:1004400007F08290530EEFDBBDEC06F0040E15ECC6
:1004500007F0BDEC06F0DD0EE6DB800E15EC07F0D4
:100460008B0EE1DB290EDFDB040EDDDBF00E15EC7D
:1004700007F0E50ED8DB3D0ED6DB600E15EC07F07D
:10048000BDEC06F0400E15EC07F0810ECCDB240E1F
:1004900015EC07F0C00E15EC07F0640E07EC07F042
:1004A000F50E13EF06F0C4DBE652DF6AFE0EDB50FA
:1004B000C96EC7A0FED7C950DF6EDF50E552BDD36D
:1004C000B7DBAFDBFE0EACEC06F0FD0EB5EC06F0D4
:1004D000FC0EACEC06F0FA0EDBCF14F0FB0EB5EC24
:1004E00006F0FA0EACEC06F0F90EACEC06F099DB77
:1004F00098DBA3D325EC07F09496949AC69A120E33
:10050000C66EC79EC79CC68A94948284DF6A0A0E10
:10051000DF5C03E286DBDF2AFAD78294950EE66E73
:10052000AFEC06F0400E8DDB010830E10601006BF8
:10053000870EE66EAA0EE66E010EE66E000EE66E01
:10054000E66A480E7EDB040B2CE121EC07F0010B80
:100550001DE067DBAA081AE1E668AFEC06F0770E4B
:1005600070DBE668000EE66EE66AE66A400EE66E4E
:10057000690E67DBE76E010EE7CFDBFFDB50ECE1D6
:10058000E668EDDB7A0E5DDB000902E0000E17D0B5
:1005900048DB400B03E00601010E006F21EC07F081
:1005A00006D0E668DCDB410E4CDB0009FAE1828410
:1005B000C69A100EC66EC79EC79CC68A010E146EE0
:1005C000020EE15C02E2E16AE552E16E145035D3BD
:1005D0002FDB080EE126060100050DE1FB0EDBCF47
:1005E00014F0FC0EDBCF15F0FD0EDBCF16F0FE0E87
:1005F000DBCF17F01BD0090E186ED950FB0FE96E38
:10060000FF0EDA20EA6E18501F0BEECF14F0EECF7B
:1006100015F0EECF16F0EECF17F008E00001D890FD
:100620001436153616361736E806F9E175DB82946E
:10063000E668040EDBCFE6FF050EDBCFE6FF040E17
:10064000DBCF14F0050EDBCF15F0060EDBCF16F076
:10065000070EDBCF17F0100ED89017321632153276
:100660001432E806F9E1D8DB510EE66E29DF186E88
:10067000060EE15E1850E76E020EE7CFDBFFDB509F
:1006800002E0CFDAF8D7CDDAE76E030EE7CFDBFF73
:10069000DB50FF08F8E0030EDB50FE0802E0000E1E
:1006A0001ED0DE6ADD6ADECF14F0DDCF15F0000E5D
:1006B000145C020E155811E2B4DAE66E9ADBDE50D5
:1006C0001424E96EDD501520EA6EE552E750EF6E16
:1006D000DF2A010EE8E3DB2AE6D7B3DB010E146E56
:1006E000080EE15C02E2E16AE552E16E1450A5D227
:1006F000ACDB6BDBE66AE66AE66AE66A1ADB33E0E5
:10070000EB0E0401005D31E0C6C514F08ADBC7C5FD
:1007100018F0F0DA02E0AEDAFEE19ADAC8C51CF0B1
:10072000EFDA02E0AEDAFEE19CDAC9C520F0EEDADB
:1007300002E0AEDAFEE1145020240F01006F1550E4
:100740002120016F16502220026F17502320036FC3
:100750003CDB00CFE6FF01CFE6FF02CFE6FF03CF91
:10076000E6FFE7DA07E1000E92D00F01006B016BA4
:10077000026B036B0FC414F00FC415F0146A04016C
:100780000E510F011424146F000E1520156F10C4A4
:1007900011FF24C414F045DB25C418F0ABDA02E0E5
:1007A00069DAFEE155DA26C41CF0AADA02E069DA59
:1007B000FEE157DA27C420F0A9DA02E069DAFEE1A7
:1007C000145020240F01086F15502120096F165076
:1007D00022200A6F175023200B6F14CF14F015CF6F
:1007E00015F0166A176A000EE96E0F0EEA6EEE50EB
:1007F0001424046FEE501520056FEE501620066F7E
:10080000EE501720076F166A176A000EE96E0F0E7A
:10081000B7DA11CF18F0196A1A6A1B6A11CF06F0FD
:10082000EFDA08CF0BF009CF0CF00ACF0DF00BCFA9
:100830000EF03EEC09F0145002240F010C6F15501D
:1008400003200D6F165004200E6F175005200F6FF8
:100850000DC410FF2CC414F0E4DA2DC418F04ADAE9
:1008600002E008DAFEE1F4D92EC41CF049DA02E015
:1008700008DAFEE1F6D92FC420F048DA02E008DAFF
:10088000FEE12FDA14C012FF15C013FF010E146E23
:10089000020EE15C02E2E16AE552E16E1450CDD154
:1008A000C7D9160EE12626DE000901E188D120DF36
:1008B000000901E184D189DA0F0110511A6E1B6A17
:1008C00012CF18F013CF19F0020E185E000E195A4D
:1008D00018C008F019C009F010CF0DF01BC00EF0C1
:1008E00076EC09F006C014F007C015F0166A176A16
:1008F0000C0EE96E0F0E44DA8FDA16C0E6FF17C051
:10090000E6FF66DE1C6E060EE15E1C50000901E18A
:1009100056D1080EDB6A090EDB6A0A0EDB6A0B0E83
:10092000DB6AD950020F40DA000EEE6E040EED6E57
:10093000020EDBCFE9FF030EDBCFEAFFEF5066E0EC
:10094000DF6A0B0EDF5C21E2DF505FD9EFCF14F0DE
:10095000B20E156E110E166E000E176EDFCF18F068
:10096000196A1A6A15501824F36E16501920F46E7D
:1009700017501A20F86EF4CFF7FFF3CFF6FF0800F8
:10098000F550145C02E1DF2ADCD70B0EDF5C36E1A8
:100990001A0E6BDA1B0E6EDA02E06CD9FEE158D942
:1009A000140E6DDA02E06DD9FEE15BD9150E6CDA3A
:1009B00002E06ED9FEE195D9AFD91C0E56DA1D0EB4
:1009C00059DA02E057D9FEE143D91E0E58DA02E0A7
:1009D00058D9FEE146D91F0E57DA02E059D9FEE197
:1009E00080D9080E14C0DBFF090E15C0DBFF0A0E0C
:1009F00016C0DBFF0B0E17C0DBFF08D0D950020F6B
:100A0000D3D9200EEE26000EED2292D7080EDBCFB2
:100A100014F0090EDBCF15F00A0EDBCF16F00B0E2B
:100A2000DBCF17F0145015101610171001E1C3D0CA
:100A30003B0E146E130E33D9010EDB6A0C0EDB6A0B
:100A40000D0EDB6AD950080FAFD90E0EEECFDBFFCB
:100A50000F0EEECFDBFF100EEECFDBFF110EEECF51
:100A6000DBFF10CF1CF01D6A1E6A1F6A040EDBCF6D
:100A700018F0050EDBCF19F0060EDBCF1AF0070ECB
:100A8000DBCF1BF0020E185E000E195A1A5A1B5AC1
:100A900018C006F0B5D910CF0BF01DC00CF01EC069
:100AA0000DF01FC00EF03EEC09F00F010C510224B6
:100AB000146E0D510320156E0E510420166E0F5149
:100AC0000520176E120E14C0DBFF130E15C0DBFFDE
:100AD000140E16C0DBFF150E17C0DBFFF2D801E6BF
:100AE00059D96DE272D9D950120F5ED9EECFE6FF17
:100AF000EECFE6FFEECFE6FFEFCFE6FF1AD95FE0DD
:100B0000DF6A080EDF5C38E2DCD801E643D934E264
:100B10000C0EDBCF14F00D0EDBCF15F0000E145CC5
:100B2000200E155817E3DF50400DF3CF14F0F4CF2B
:100B300015F0000E1426040E15226ED90C0EDBCF14
:100B4000E6FF0D0EDBCFE6FF16EC00F0E552E552B6
:100B5000E552E552D9500C0F27D9400EEE26000E73
:100B6000ED22D9500E0F20D9400EEE5E000EEE5A47
:100B7000EE5AEE5ADF2AC5D70F0EE66EE66AF00E81
:100B8000E66E100EE66E020EE66E380EE66E010E92
:100B9000DBCFE6FFB0EC00F0146E070EE15E145000
:100BA000010EDB2AD950120FFFD8EE2A000EEE22DA
:100BB000EE22EE2293D7280E146E130E70D8160E66
:100BC000E15C02E2E16AE552E16E37D0600ED36E7D
:100BD0009B8C7F6A7E6A8450040B14E18450020B64
:100BE00011E124DCE66AE66AE66A840EE66E840EAB
:100BF000E66EE66AE66AB0EC00F0146E070EE15E9F
:100C000014504EDE00EF10F01200E76E020EDBCF44
:100C1000E9FF030E29EF07F09CEC00F0E55215EF19
:100C200007F0E6683AD1E66E79EC00F0E552120082
:100C3000D9CFE6FFE1CFD9FF1200E552E7CFD9FFC8
:100C40001200E66E3DDC146E060EE15E14501200DA
:100C500018501426195015221A5016221B5017220C
:100C600012001C5014261D5015221E5016221F5013
:100C700017221200D890183619361A361B36E80695
:100C80001200D8901C361D361E361F36E80612009C
:100C9000D8902036213622362336E8061200156E0B
:100CA000166A14C0E6FFE66E16C0E6FF300EE66E6A
:100CB000020EE66E91EC01F0176E050EE15E175024
:100CC00012000E0EDBCF07F00F0EDBCF08F0100E78
:100CD000DBCF09F0110EDBCF0AF00A34000E0A1840
:100CE0001200205014262150152222501622235083
:100CF00017221200196A1A6A1B6A080E1F0B1200CB
:100D00001D6A1E6A1F6A100E1F0B1200216A226ADA
:100D1000236A180E1F0B1200040E14C0DBFF050E11
:100D200015C0DBFF060E16C0DBFF070E17C0DBFF8A
:100D300012004EDC146E060EE15E14500009120023
:100D4000FA0EDBCFF6FFFB0EDBCFF7FFFC0EDBCF9F
:100D5000F8FF0800F5501200DBCFE6FF9ED0000E32
:100D6000E66EE66AE66EE66A1200DBCF15F015C0A5
:100D700014F0156A1450E66E90D0E66A51EF07F051
:100D8000EA6EEE501426EE501522EE501622EE506A
:100D900017221200D880000E0754000E0854000ECF
:100DA0000954000E0A541200E96EDACFEAFF12006D
:100DB000A684F29E550EA76EAA0EA76EA682F28E8C
:100DC0001200DBCFE6FF51EF07F0000EE66E040ED7
:100DD000E66E12000F0BF76ABE0FF66E110EF722C9
:100DE00008001200F36E010EDBCFF4FFF350F45C49
:100DF0001200F90EDBCF14F0FA0EDBCF15F0120063
:100E000019C007F01AC008F01BC009F01200E66E06
:100E1000A7EC09F0E552120014C0E6FF15C0E6FF8A
:100E20001200156A166A176A1200E66E51EF07F093
:100E3000E66EF2DEA80EF7DEFD0EDBCFE6FF0CEF6E
:100E400006F0EFDEEEDE11EF06F0F2DE020EE12636
:100E50001200DBCFEAFFE750E926000EEA2212007B
:100E6000E66EDADE3A0E13EF06F0CFDEEFCF14F0C7
:100E700011EF07F0CADEEFCF18F07AEF06F0C5DE0B
:100E8000EFCF1CF080EF06F0C0DEEFCF20F086EF52
:100E900006F0CEDEE652FE0E120053EC02F0E552F2
:0A0EA00012008AEC00F0E552120087
:060EAA000608080000002C
:100EB0000000000000000000000020202020200092
:100EC000200050505000000000005050F850F850E2
:100ED00050002078A07028F02000C0C81020409852
:100EE000180040A0A040A8906800303020400000CA
:100EF0000000102040404020100040201010102022
:100F000040000020A87070A82000002020F82020B9
:100F100000000000000030302040000000F8000019
:100F20000000000000000030300000081020408069
:100F30000000708888A88888700020602020202009
:100F40007000708808708080F800F80810300888F9
:100F5000700010305090F8101000F880F0080888E9
:100F60007000384080F088887000F8080810204031
:100F70008000708888708888700070888878081071
:100F8000E0000000200020000000000020002020E1
:100F9000400008102040201008000000F800F80071
:100FA0000000402010081020400070880830200009
:100FB00020007088A8B8B080780020508888F88811
:100FC0008800F08888F08888F000708880808088A9
:100FD0007000F08888888888F000F88080F0808031
:100FE000F800F88080F08080800078888080988881
:100FF0007800888888F88888880070202020202041
:10100000700038101010109060008890A0C0A09060
:101010008800808080808080F80088D8A8A8A88870
:1010200088008888C8A898888800708888888888F8
:101030007000F08888F08080800070888888A89090
:101040006800F08888F0A090880070888070088818
:101050007000F8A8202020202000888888888888B0
:1010600070008888888888502000888888A8A8A868
:101070005000888850205088880088885020202080
:101080002000F80810704080F80078404040404050
:101090007800008040201008000078080808080840
:1010A00078002050880000000000000000000000D0
:1010B000F8006060201000000000000060107090D8
:1010C00078008080B0C888C8B00000007088808830
:1010D0007000080868988898680000007088F88098
:1010E0007000102820702020200000007098986860
:1010F00008708080B0C88888880020006020202088
:1011000070001000101010906000808090A0C0A0AF
:10111000900060202020202070000000D0A8A8A807
:10112000A8000000B0C888888800000070888888FF
:1011300070000000B0C8C8B080800000689898684F
:1011400008080000B0C88080800000007880700827
:10115000F0002020F82020281000000088888898BF
:101160006800000088888850200000008888A8A8AF
:1011700050000000885020508800000088887808BF
:1011800088700000F8102040F80010202040202037
:1011900010002020200020202000402020102020AF
:1011A000400040A810000000000070D8D870000077
:1011B000000043554D554C55532042494E00000800
:1011C000040C020A060E0109050D030B070F30314E
:0E11D0003233343536373839414243444546D0
:0211DE002A0ED7
:1011E000F66E000EF76E000EF86E0F010900F55056
:1011F0001B6F0900F5501C6F03E11B6701D03DD048
:101200000900F550166F0900F550176F0900F550E9
:10121000186F09000900F550E96E0900F550EA6EF3
:10122000090009000900F550196F0900F5501A6FFF
:1012300009000900F6CF1DFFF7CF1EFFF8CF1FFFF3
:1012400016CFF6FF17CFF7FF18CFF8FF0F0119538E
:1012500002E11A5307E00900F550EE6E1907F8E2B3
:101260001A07F9D71DCFF6FF1ECFF7FF1FCFF8FFE4
:0C1270000F011B07000E1C5BBFD7120013
:04127C0006500B020B
:10128000F3CF02F0F4CF03F00C02F3500326000E6C
:10129000F420046E06500D02F3500426000EF420D4
:1012A000056E06500E02F350052607500B02F35050
:1012B0000326F4500422000E052207500C02F350BE
:1012C0000426F450052207500D02F350052608505D
:1012D0000B02F3500426F450052208500C02F35080
:0C12E000052609500B02F35005261200F1
:0412EC0008C012F034
:1012F00008500D02F4CF07F0F3CF06F009500E02AC
:10130000F4CF09F0F3CF08F00D02F3500726F450A4
:101310000822E86A092212500E02F3500726F45000
:081320000822E86A0922000C12
:081328004669726D7761726580
:10133000206E6F7420666F756E6400557064617402
:0D134000696E67206669726D7761726500E5
:02134E00FF0E90
:10135000E350246E480E01D04C0EE76EE72EFED708
:0E136000E76AE72EFED7242EF7D70000120012
:02136E00600E0F
:10137000F36E00EE00F00F0E01D81200EA6002D00A
:0E138000EE6AFCD7F350E9601200EE6AFCD76B
:02138E001EEE51
:1013900000F02EEE00F0F86A019CEFEC08F0D5ECBE
:0A13A00009F0E6EC05F0FBD712009F
:0213AA0012002F
:020000040030CA
:0100010005F9
:0100020018E5
:010003001EDE
:010005008971
:010006008178
:010008000FE8
:01000900C036
:01000A000FE6
:01000B00E014
:00000001FF
